{
  "_format": "hh-sol-artifact-1",
  "contractName": "Sns",
  "sourceName": "contracts/Sns.sol",
  "abi": [
    {
      "anonymous": false,
      "inputs": [
        {
          "indexed": true,
          "internalType": "address",
          "name": "user",
          "type": "address"
        },
        {
          "indexed": false,
          "internalType": "string",
          "name": "text",
          "type": "string"
        },
        {
          "indexed": false,
          "internalType": "uint256",
          "name": "postId",
          "type": "uint256"
        },
        {
          "indexed": false,
          "internalType": "uint256",
          "name": "good",
          "type": "uint256"
        },
        {
          "indexed": false,
          "internalType": "uint256",
          "name": "timestamp",
          "type": "uint256"
        },
        {
          "indexed": false,
          "internalType": "address[]",
          "name": "goodUser",
          "type": "address[]"
        }
      ],
      "name": "NewPost",
      "type": "event"
    },
    {
      "inputs": [],
      "name": "getAllPost",
      "outputs": [
        {
          "components": [
            {
              "internalType": "address",
              "name": "user",
              "type": "address"
            },
            {
              "internalType": "string",
              "name": "text",
              "type": "string"
            },
            {
              "internalType": "uint256",
              "name": "postId",
              "type": "uint256"
            },
            {
              "internalType": "uint256",
              "name": "good",
              "type": "uint256"
            },
            {
              "internalType": "uint256",
              "name": "timestamp",
              "type": "uint256"
            },
            {
              "internalType": "address[]",
              "name": "goodUser",
              "type": "address[]"
            }
          ],
          "internalType": "struct Sns.PostData[]",
          "name": "",
          "type": "tuple[]"
        }
      ],
      "stateMutability": "view",
      "type": "function"
    },
    {
      "inputs": [
        {
          "internalType": "uint256",
          "name": "_postId",
          "type": "uint256"
        }
      ],
      "name": "getPost",
      "outputs": [
        {
          "internalType": "address",
          "name": "",
          "type": "address"
        },
        {
          "internalType": "string",
          "name": "",
          "type": "string"
        },
        {
          "internalType": "uint256",
          "name": "",
          "type": "uint256"
        },
        {
          "internalType": "uint256",
          "name": "",
          "type": "uint256"
        },
        {
          "internalType": "uint256",
          "name": "",
          "type": "uint256"
        },
        {
          "internalType": "address[]",
          "name": "",
          "type": "address[]"
        }
      ],
      "stateMutability": "view",
      "type": "function"
    },
    {
      "inputs": [
        {
          "internalType": "uint256",
          "name": "_postId",
          "type": "uint256"
        }
      ],
      "name": "goodPost",
      "outputs": [],
      "stateMutability": "nonpayable",
      "type": "function"
    },
    {
      "inputs": [
        {
          "internalType": "uint256",
          "name": "_postId",
          "type": "uint256"
        }
      ],
      "name": "goodRemove",
      "outputs": [],
      "stateMutability": "nonpayable",
      "type": "function"
    },
    {
      "inputs": [
        {
          "internalType": "string",
          "name": "_text",
          "type": "string"
        }
      ],
      "name": "post",
      "outputs": [],
      "stateMutability": "nonpayable",
      "type": "function"
    },
    {
      "inputs": [],
      "name": "postCounter",
      "outputs": [
        {
          "internalType": "uint256",
          "name": "",
          "type": "uint256"
        }
      ],
      "stateMutability": "view",
      "type": "function"
    },
    {
      "inputs": [
        {
          "internalType": "uint256",
          "name": "",
          "type": "uint256"
        }
      ],
      "name": "postIdData",
      "outputs": [
        {
          "internalType": "address",
          "name": "user",
          "type": "address"
        },
        {
          "internalType": "string",
          "name": "text",
          "type": "string"
        },
        {
          "internalType": "uint256",
          "name": "postId",
          "type": "uint256"
        },
        {
          "internalType": "uint256",
          "name": "good",
          "type": "uint256"
        },
        {
          "internalType": "uint256",
          "name": "timestamp",
          "type": "uint256"
        }
      ],
      "stateMutability": "view",
      "type": "function"
    }
  ],
  "bytecode": "0x60806040526000805534801561001457600080fd5b50611fc8806100246000396000f3fe608060405234801561001057600080fd5b506004361061007d5760003560e01c80638ee93cf31161005b5780638ee93cf3146100f157806391da92951461010d578063da7d9d1014610141578063e80976a71461015f5761007d565b806309b3d75e1461008257806340731c24146100a0578063503c2c36146100d5575b600080fd5b61008a61017b565b60405161009791906113f6565b60405180910390f35b6100ba60048036038101906100b59190611451565b610181565b6040516100cc96959493929190611616565b60405180910390f35b6100ef60048036038101906100ea9190611451565b61035d565b005b61010b600480360381019061010691906117ba565b610a7d565b005b61012760048036038101906101229190611451565b610cc2565b604051610138959493929190611803565b60405180910390f35b610149610da0565b6040516101569190611a77565b60405180910390f35b61017960048036038101906101749190611451565b610f93565b005b60005481565b60006060600080600060606002600088815260200190815260200160002060000160009054906101000a900473ffffffffffffffffffffffffffffffffffffffff1660026000898152602001908152602001600020600101600260008a815260200190815260200160002060020154600260008b815260200190815260200160002060030154600260008c815260200190815260200160002060040154600260008d815260200190815260200160002060050184805461024090611ac8565b80601f016020809104026020016040519081016040528092919081815260200182805461026c90611ac8565b80156102b95780601f1061028e576101008083540402835291602001916102b9565b820191906000526020600020905b81548152906001019060200180831161029c57829003601f168201915b505050505094508080548060200260200160405190810160405280929190818152602001828054801561034157602002820191906000526020600020905b8160009054906101000a900473ffffffffffffffffffffffffffffffffffffffff1673ffffffffffffffffffffffffffffffffffffffff16815260200190600101908083116102f7575b5050505050905095509550955095509550955091939550919395565b6002600082815260200190815260200160002060000160009054906101000a900473ffffffffffffffffffffffffffffffffffffffff1673ffffffffffffffffffffffffffffffffffffffff163373ffffffffffffffffffffffffffffffffffffffff161415610402576040517f08c379a00000000000000000000000000000000000000000000000000000000081526004016103f990611b6c565b60405180910390fd5b600060026000838152602001908152602001600020600301541161045b576040517f08c379a000000000000000000000000000000000000000000000000000000000815260040161045290611bd8565b60405180910390fd5b6000805b6002600084815260200190815260200160002060050180549050811015610905573373ffffffffffffffffffffffffffffffffffffffff166002600085815260200190815260200160002060050182815481106104bf576104be611bf8565b5b9060005260206000200160009054906101000a900473ffffffffffffffffffffffffffffffffffffffff1673ffffffffffffffffffffffffffffffffffffffff16148015610511575060001515821515145b156106fe57600191506001600260008581526020019081526020016000206005018054905011156106f957600183815481106105505761054f611bf8565b5b906000526020600020906006020160050160018261056e9190611c56565b8154811061057f5761057e611bf8565b5b9060005260206000200160009054906101000a900473ffffffffffffffffffffffffffffffffffffffff16600184815481106105be576105bd611bf8565b5b906000526020600020906006020160050182815481106105e1576105e0611bf8565b5b9060005260206000200160006101000a81548173ffffffffffffffffffffffffffffffffffffffff021916908373ffffffffffffffffffffffffffffffffffffffff1602179055506002600084815260200190815260200160002060050160018261064c9190611c56565b8154811061065d5761065c611bf8565b5b9060005260206000200160009054906101000a900473ffffffffffffffffffffffffffffffffffffffff166002600085815260200190815260200160002060050182815481106106b0576106af611bf8565b5b9060005260206000200160006101000a81548173ffffffffffffffffffffffffffffffffffffffff021916908373ffffffffffffffffffffffffffffffffffffffff1602179055505b6108f2565b80600160026000868152602001908152602001600020600501805490506107259190611cac565b11801561072f5750815b156108f1576001838154811061074857610747611bf8565b5b90600052602060002090600602016005016001826107669190611c56565b8154811061077757610776611bf8565b5b9060005260206000200160009054906101000a900473ffffffffffffffffffffffffffffffffffffffff16600184815481106107b6576107b5611bf8565b5b906000526020600020906006020160050182815481106107d9576107d8611bf8565b5b9060005260206000200160006101000a81548173ffffffffffffffffffffffffffffffffffffffff021916908373ffffffffffffffffffffffffffffffffffffffff160217905550600260008481526020019081526020016000206005016001826108449190611c56565b8154811061085557610854611bf8565b5b9060005260206000200160009054906101000a900473ffffffffffffffffffffffffffffffffffffffff166002600085815260200190815260200160002060050182815481106108a8576108a7611bf8565b5b9060005260206000200160006101000a81548173ffffffffffffffffffffffffffffffffffffffff021916908373ffffffffffffffffffffffffffffffffffffffff1602179055505b5b80806108fd90611ce0565b91505061045f565b50600115158115151461094d576040517f08c379a000000000000000000000000000000000000000000000000000000000815260040161094490611d75565b60405180910390fd5b6001828154811061096157610960611bf8565b5b906000526020600020906006020160050180548061098257610981611d95565b5b6001900381819060005260206000200160006101000a81549073ffffffffffffffffffffffffffffffffffffffff02191690559055600260008381526020019081526020016000206005018054806109dd576109dc611d95565b5b6001900381819060005260206000200160006101000a81549073ffffffffffffffffffffffffffffffffffffffff0219169055905560018281548110610a2657610a25611bf8565b5b90600052602060002090600602016003016000815480929190610a4890611dc4565b9190505550600260008381526020019081526020016000206003016000815480929190610a7490611dc4565b91905055505050565b606060006040518060c001604052803373ffffffffffffffffffffffffffffffffffffffff168152602001848152602001600054815260200160008152602001428152602001838152509050600181908060018154018082558091505060019003906000526020600020906006020160009091909190915060008201518160000160006101000a81548173ffffffffffffffffffffffffffffffffffffffff021916908373ffffffffffffffffffffffffffffffffffffffff1602179055506020820151816001019080519060200190610b589291906112b0565b5060408201518160020155606082015181600301556080820151816004015560a0820151816005019080519060200190610b93929190611336565b50505080600260008054815260200190815260200160002060008201518160000160006101000a81548173ffffffffffffffffffffffffffffffffffffffff021916908373ffffffffffffffffffffffffffffffffffffffff1602179055506020820151816001019080519060200190610c0e9291906112b0565b5060408201518160020155606082015181600301556080820151816004015560a0820151816005019080519060200190610c49929190611336565b50905050600080815480929190610c5f90611ce0565b91905055503373ffffffffffffffffffffffffffffffffffffffff167f18148859aa3a483ed896884c7369427205fed67cc3be29837e297338b3cabcc68460005460004287604051610cb5959493929190611e33565b60405180910390a2505050565b60026020528060005260406000206000915090508060000160009054906101000a900473ffffffffffffffffffffffffffffffffffffffff1690806001018054610d0b90611ac8565b80601f0160208091040260200160405190810160405280929190818152602001828054610d3790611ac8565b8015610d845780601f10610d5957610100808354040283529160200191610d84565b820191906000526020600020905b815481529060010190602001808311610d6757829003601f168201915b5050505050908060020154908060030154908060040154905085565b60606001805480602002602001604051908101604052809291908181526020016000905b82821015610f8a57838290600052602060002090600602016040518060c00160405290816000820160009054906101000a900473ffffffffffffffffffffffffffffffffffffffff1673ffffffffffffffffffffffffffffffffffffffff1673ffffffffffffffffffffffffffffffffffffffff168152602001600182018054610e4d90611ac8565b80601f0160208091040260200160405190810160405280929190818152602001828054610e7990611ac8565b8015610ec65780601f10610e9b57610100808354040283529160200191610ec6565b820191906000526020600020905b815481529060010190602001808311610ea957829003601f168201915b5050505050815260200160028201548152602001600382015481526020016004820154815260200160058201805480602002602001604051908101604052809291908181526020018280548015610f7257602002820191906000526020600020905b8160009054906101000a900473ffffffffffffffffffffffffffffffffffffffff1673ffffffffffffffffffffffffffffffffffffffff1681526020019060010190808311610f28575b50505050508152505081526020019060010190610dc4565b50505050905090565b6002600082815260200190815260200160002060000160009054906101000a900473ffffffffffffffffffffffffffffffffffffffff1673ffffffffffffffffffffffffffffffffffffffff163373ffffffffffffffffffffffffffffffffffffffff161415611038576040517f08c379a000000000000000000000000000000000000000000000000000000000815260040161102f90611f06565b60405180910390fd5b60006001905060005b6002600084815260200190815260200160002060050180549050811015611100573373ffffffffffffffffffffffffffffffffffffffff166002600085815260200190815260200160002060050182815481106110a1576110a0611bf8565b5b9060005260206000200160009054906101000a900473ffffffffffffffffffffffffffffffffffffffff1673ffffffffffffffffffffffffffffffffffffffff1614156110ed57600091505b80806110f890611ce0565b915050611041565b506001151581151514611148576040517f08c379a000000000000000000000000000000000000000000000000000000000815260040161113f90611f72565b60405180910390fd5b60026000838152602001908152602001600020600301600081548092919061116f90611ce0565b91905055506001828154811061118857611187611bf8565b5b906000526020600020906006020160030160008154809291906111aa90611ce0565b919050555060026000838152602001908152602001600020600501339080600181540180825580915050600190039060005260206000200160009091909190916101000a81548173ffffffffffffffffffffffffffffffffffffffff021916908373ffffffffffffffffffffffffffffffffffffffff1602179055506001828154811061123a57611239611bf8565b5b9060005260206000209060060201600501339080600181540180825580915050600190039060005260206000200160009091909190916101000a81548173ffffffffffffffffffffffffffffffffffffffff021916908373ffffffffffffffffffffffffffffffffffffffff1602179055505050565b8280546112bc90611ac8565b90600052602060002090601f0160209004810192826112de5760008555611325565b82601f106112f757805160ff1916838001178555611325565b82800160010185558215611325579182015b82811115611324578251825591602001919060010190611309565b5b50905061133291906113c0565b5090565b8280548282559060005260206000209081019282156113af579160200282015b828111156113ae5782518260006101000a81548173ffffffffffffffffffffffffffffffffffffffff021916908373ffffffffffffffffffffffffffffffffffffffff16021790555091602001919060010190611356565b5b5090506113bc91906113c0565b5090565b5b808211156113d95760008160009055506001016113c1565b5090565b6000819050919050565b6113f0816113dd565b82525050565b600060208201905061140b60008301846113e7565b92915050565b6000604051905090565b600080fd5b600080fd5b61142e816113dd565b811461143957600080fd5b50565b60008135905061144b81611425565b92915050565b6000602082840312156114675761146661141b565b5b60006114758482850161143c565b91505092915050565b600073ffffffffffffffffffffffffffffffffffffffff82169050919050565b60006114a98261147e565b9050919050565b6114b98161149e565b82525050565b600081519050919050565b600082825260208201905092915050565b60005b838110156114f95780820151818401526020810190506114de565b83811115611508576000848401525b50505050565b6000601f19601f8301169050919050565b600061152a826114bf565b61153481856114ca565b93506115448185602086016114db565b61154d8161150e565b840191505092915050565b600081519050919050565b600082825260208201905092915050565b6000819050602082019050919050565b61158d8161149e565b82525050565b600061159f8383611584565b60208301905092915050565b6000602082019050919050565b60006115c382611558565b6115cd8185611563565b93506115d883611574565b8060005b838110156116095781516115f08882611593565b97506115fb836115ab565b9250506001810190506115dc565b5085935050505092915050565b600060c08201905061162b60008301896114b0565b818103602083015261163d818861151f565b905061164c60408301876113e7565b61165960608301866113e7565b61166660808301856113e7565b81810360a083015261167881846115b8565b9050979650505050505050565b600080fd5b600080fd5b7f4e487b7100000000000000000000000000000000000000000000000000000000600052604160045260246000fd5b6116c78261150e565b810181811067ffffffffffffffff821117156116e6576116e561168f565b5b80604052505050565b60006116f9611411565b905061170582826116be565b919050565b600067ffffffffffffffff8211156117255761172461168f565b5b61172e8261150e565b9050602081019050919050565b82818337600083830152505050565b600061175d6117588461170a565b6116ef565b9050828152602081018484840111156117795761177861168a565b5b61178484828561173b565b509392505050565b600082601f8301126117a1576117a0611685565b5b81356117b184826020860161174a565b91505092915050565b6000602082840312156117d0576117cf61141b565b5b600082013567ffffffffffffffff8111156117ee576117ed611420565b5b6117fa8482850161178c565b91505092915050565b600060a08201905061181860008301886114b0565b818103602083015261182a818761151f565b905061183960408301866113e7565b61184660608301856113e7565b61185360808301846113e7565b9695505050505050565b600081519050919050565b600082825260208201905092915050565b6000819050602082019050919050565b600082825260208201905092915050565b60006118a5826114bf565b6118af8185611889565b93506118bf8185602086016114db565b6118c88161150e565b840191505092915050565b6118dc816113dd565b82525050565b600082825260208201905092915050565b60006118fe82611558565b61190881856118e2565b935061191383611574565b8060005b8381101561194457815161192b8882611593565b9750611936836115ab565b925050600181019050611917565b5085935050505092915050565b600060c0830160008301516119696000860182611584565b5060208301518482036020860152611981828261189a565b915050604083015161199660408601826118d3565b5060608301516119a960608601826118d3565b5060808301516119bc60808601826118d3565b5060a083015184820360a08601526119d482826118f3565b9150508091505092915050565b60006119ed8383611951565b905092915050565b6000602082019050919050565b6000611a0d8261185d565b611a178185611868565b935083602082028501611a2985611879565b8060005b85811015611a655784840389528151611a4685826119e1565b9450611a51836119f5565b925060208a01995050600181019050611a2d565b50829750879550505050505092915050565b60006020820190508181036000830152611a918184611a02565b905092915050565b7f4e487b7100000000000000000000000000000000000000000000000000000000600052602260045260246000fd5b60006002820490506001821680611ae057607f821691505b60208210811415611af457611af3611a99565b5b50919050565b7f546865207375626d69747465722063616e6e6f742064656c6574652061206c6960008201527f6b652e0000000000000000000000000000000000000000000000000000000000602082015250565b6000611b566023836114ca565b9150611b6182611afa565b604082019050919050565b60006020820190508181036000830152611b8581611b49565b9050919050565b7f4e6f74206f6e65206c696b6520686173206265656e20707265737365642e0000600082015250565b6000611bc2601e836114ca565b9150611bcd82611b8c565b602082019050919050565b60006020820190508181036000830152611bf181611bb5565b9050919050565b7f4e487b7100000000000000000000000000000000000000000000000000000000600052603260045260246000fd5b7f4e487b7100000000000000000000000000000000000000000000000000000000600052601160045260246000fd5b6000611c61826113dd565b9150611c6c836113dd565b9250827fffffffffffffffffffffffffffffffffffffffffffffffffffffffffffffffff03821115611ca157611ca0611c27565b5b828201905092915050565b6000611cb7826113dd565b9150611cc2836113dd565b925082821015611cd557611cd4611c27565b5b828203905092915050565b6000611ceb826113dd565b91507fffffffffffffffffffffffffffffffffffffffffffffffffffffffffffffffff821415611d1e57611d1d611c27565b5b600182019050919050565b7f492068617665206e6f74206c696b65642069742e000000000000000000000000600082015250565b6000611d5f6014836114ca565b9150611d6a82611d29565b602082019050919050565b60006020820190508181036000830152611d8e81611d52565b9050919050565b7f4e487b7100000000000000000000000000000000000000000000000000000000600052603160045260246000fd5b6000611dcf826113dd565b91506000821415611de357611de2611c27565b5b600182039050919050565b6000819050919050565b6000819050919050565b6000611e1d611e18611e1384611dee565b611df8565b6113dd565b9050919050565b611e2d81611e02565b82525050565b600060a0820190508181036000830152611e4d818861151f565b9050611e5c60208301876113e7565b611e696040830186611e24565b611e7660608301856113e7565b8181036080830152611e8881846115b8565b90509695505050505050565b7f436f6e7472696275746f727320617265206e6f7420616c6c6f77656420746f2060008201527f6c696b652074686520706f73742e000000000000000000000000000000000000602082015250565b6000611ef0602e836114ca565b9150611efb82611e94565b604082019050919050565b60006020820190508181036000830152611f1f81611ee3565b9050919050565b7f596f752063616e6e6f74207072657373206c696b652074776963652e00000000600082015250565b6000611f5c601c836114ca565b9150611f6782611f26565b602082019050919050565b60006020820190508181036000830152611f8b81611f4f565b905091905056fea26469706673582212207cb444a8b62b3f30fd8cbafd2fc0a9f7b65bcf90838a74a75414098935234cb664736f6c63430008090033",
  "linkReferences": {},
  "deployedLinkReferences": {}
}