{
    "_format": "hh-sol-artifact-1",
    "contractName": "Sns",
    "sourceName": "contracts/Sns.sol",
    "abi": [
        {
            "anonymous": false,
            "inputs": [
                {
                    "indexed": true,
                    "internalType": "address",
                    "name": "from",
                    "type": "address"
                },
                {
                    "indexed": false,
                    "internalType": "string",
                    "name": "text",
                    "type": "string"
                },
                {
                    "indexed": false,
                    "internalType": "uint256",
                    "name": "good",
                    "type": "uint256"
                },
                {
                    "indexed": false,
                    "internalType": "uint256",
                    "name": "timestamp",
                    "type": "uint256"
                }
            ],
            "name": "EmitPostData",
            "type": "event"
        },
        {
            "inputs": [
                {
                    "internalType": "uint256",
                    "name": "_postId",
                    "type": "uint256"
                }
            ],
            "name": "getPost",
            "outputs": [
                {
                    "internalType": "address",
                    "name": "",
                    "type": "address"
                },
                {
                    "internalType": "string",
                    "name": "",
                    "type": "string"
                },
                {
                    "internalType": "uint256",
                    "name": "",
                    "type": "uint256"
                },
                {
                    "internalType": "uint256",
                    "name": "",
                    "type": "uint256"
                }
            ],
            "stateMutability": "view",
            "type": "function"
        },
        {
            "inputs": [
                {
                    "internalType": "uint256",
                    "name": "_postId",
                    "type": "uint256"
                }
            ],
            "name": "goodPost",
            "outputs": [],
            "stateMutability": "nonpayable",
            "type": "function"
        },
        {
            "inputs": [
                {
                    "internalType": "uint256",
                    "name": "_postId",
                    "type": "uint256"
                }
            ],
            "name": "goodRemove",
            "outputs": [],
            "stateMutability": "nonpayable",
            "type": "function"
        },
        {
            "inputs": [
                {
                    "internalType": "uint256",
                    "name": "",
                    "type": "uint256"
                },
                {
                    "internalType": "uint256",
                    "name": "",
                    "type": "uint256"
                }
            ],
            "name": "goodWallet",
            "outputs": [
                {
                    "internalType": "address",
                    "name": "",
                    "type": "address"
                }
            ],
            "stateMutability": "view",
            "type": "function"
        },
        {
            "inputs": [
                {
                    "internalType": "string",
                    "name": "_text",
                    "type": "string"
                }
            ],
            "name": "post",
            "outputs": [],
            "stateMutability": "nonpayable",
            "type": "function"
        },
        {
            "inputs": [],
            "name": "postCounter",
            "outputs": [
                {
                    "internalType": "uint256",
                    "name": "",
                    "type": "uint256"
                }
            ],
            "stateMutability": "view",
            "type": "function"
        },
        {
            "inputs": [
                {
                    "internalType": "uint256",
                    "name": "",
                    "type": "uint256"
                }
            ],
            "name": "postData",
            "outputs": [
                {
                    "internalType": "address",
                    "name": "user",
                    "type": "address"
                },
                {
                    "internalType": "string",
                    "name": "text",
                    "type": "string"
                },
                {
                    "internalType": "uint256",
                    "name": "good",
                    "type": "uint256"
                },
                {
                    "internalType": "uint256",
                    "name": "timestamp",
                    "type": "uint256"
                }
            ],
            "stateMutability": "view",
            "type": "function"
        },
        {
            "inputs": [
                {
                    "internalType": "uint256",
                    "name": "",
                    "type": "uint256"
                }
            ],
            "name": "postIdData",
            "outputs": [
                {
                    "internalType": "address",
                    "name": "user",
                    "type": "address"
                },
                {
                    "internalType": "string",
                    "name": "text",
                    "type": "string"
                },
                {
                    "internalType": "uint256",
                    "name": "good",
                    "type": "uint256"
                },
                {
                    "internalType": "uint256",
                    "name": "timestamp",
                    "type": "uint256"
                }
            ],
            "stateMutability": "view",
            "type": "function"
        }
    ],
    "bytecode": "0x6080604052600160005534801561001557600080fd5b5061144a806100256000396000f3fe608060405234801561001057600080fd5b50600436106100885760003560e01c80638ee93cf31161005b5780638ee93cf31461012a57806391da929514610146578063e80976a714610179578063ee900e3a1461019557610088565b806309b3d75e1461008d57806340731c24146100ab578063503c2c36146100de578063660bca4e146100fa575b600080fd5b6100956101c8565b6040516100a29190610c70565b60405180910390f35b6100c560048036038101906100c09190610ccb565b6101ce565b6040516100d59493929190610dd2565b60405180910390f35b6100f860048036038101906100f39190610ccb565b6102eb565b005b610114600480360381019061010f9190610e1e565b610573565b6040516101219190610e5e565b60405180910390f35b610144600480360381019061013f9190610fae565b6105c1565b005b610160600480360381019061015b9190610ccb565b6107a1565b6040516101709493929190610dd2565b60405180910390f35b610193600480360381019061018e9190610ccb565b610879565b005b6101af60048036038101906101aa9190610ccb565b610acc565b6040516101bf9493929190610dd2565b60405180910390f35b60005481565b600060606000806002600086815260200190815260200160002060000160009054906101000a900473ffffffffffffffffffffffffffffffffffffffff16600260008781526020019081526020016000206001016002600088815260200190815260200160002060020154600260008981526020019081526020016000206003015482805461025c90611026565b80601f016020809104026020016040519081016040528092919081815260200182805461028890611026565b80156102d55780601f106102aa576101008083540402835291602001916102d5565b820191906000526020600020905b8154815290600101906020018083116102b857829003601f168201915b5050505050925093509350935093509193509193565b6002600082815260200190815260200160002060000160009054906101000a900473ffffffffffffffffffffffffffffffffffffffff1673ffffffffffffffffffffffffffffffffffffffff163373ffffffffffffffffffffffffffffffffffffffff161415610390576040517f08c379a0000000000000000000000000000000000000000000000000000000008152600401610387906110ca565b60405180910390fd5b60006002600083815260200190815260200160002060020154116103e9576040517f08c379a00000000000000000000000000000000000000000000000000000000081526004016103e090611136565b60405180910390fd5b60008060005b60036000858152602001908152602001600020805490508110156104a8573373ffffffffffffffffffffffffffffffffffffffff1660036000868152602001908152602001600020828154811061044957610448611156565b5b9060005260206000200160009054906101000a900473ffffffffffffffffffffffffffffffffffffffff1673ffffffffffffffffffffffffffffffffffffffff16141561049557600192505b80806104a0906111b4565b9150506103ef565b5060011515821515146104f0576040517f08c379a00000000000000000000000000000000000000000000000000000000081526004016104e790611249565b60405180910390fd5b60036000848152602001908152602001600020818154811061051557610514611156565b5b9060005260206000200160006101000a81549073ffffffffffffffffffffffffffffffffffffffff021916905560026000848152602001908152602001600020600201600081548092919061056990611269565b9190505550505050565b6003602052816000526040600020818154811061058f57600080fd5b906000526020600020016000915091509054906101000a900473ffffffffffffffffffffffffffffffffffffffff1681565b600060405180608001604052803373ffffffffffffffffffffffffffffffffffffffff16815260200183815260200160008152602001428152509050600181908060018154018082558091505060019003906000526020600020906004020160009091909190915060008201518160000160006101000a81548173ffffffffffffffffffffffffffffffffffffffff021916908373ffffffffffffffffffffffffffffffffffffffff160217905550602082015181600101908051906020019061068c929190610bb4565b506040820151816002015560608201518160030155505080600260008054815260200190815260200160002060008201518160000160006101000a81548173ffffffffffffffffffffffffffffffffffffffff021916908373ffffffffffffffffffffffffffffffffffffffff160217905550602082015181600101908051906020019061071b929190610bb4565b506040820151816002015560608201518160030155905050600080815480929190610745906111b4565b91905055503373ffffffffffffffffffffffffffffffffffffffff167fa7c642d1ffa73dc8c0ed9b7fe56e3a1a99593070cfbdd7415621a5fde7fb5aa483600042604051610795939291906112d8565b60405180910390a25050565b60026020528060005260406000206000915090508060000160009054906101000a900473ffffffffffffffffffffffffffffffffffffffff16908060010180546107ea90611026565b80601f016020809104026020016040519081016040528092919081815260200182805461081690611026565b80156108635780601f1061083857610100808354040283529160200191610863565b820191906000526020600020905b81548152906001019060200180831161084657829003601f168201915b5050505050908060020154908060030154905084565b6002600082815260200190815260200160002060000160009054906101000a900473ffffffffffffffffffffffffffffffffffffffff1673ffffffffffffffffffffffffffffffffffffffff163373ffffffffffffffffffffffffffffffffffffffff16141561091e576040517f08c379a000000000000000000000000000000000000000000000000000000000815260040161091590611388565b60405180910390fd5b60006001905060005b60036000848152602001908152602001600020805490508110156109e0573373ffffffffffffffffffffffffffffffffffffffff1660036000858152602001908152602001600020828154811061098157610980611156565b5b9060005260206000200160009054906101000a900473ffffffffffffffffffffffffffffffffffffffff1673ffffffffffffffffffffffffffffffffffffffff1614156109cd57600091505b80806109d8906111b4565b915050610927565b506001151581151514610a28576040517f08c379a0000000000000000000000000000000000000000000000000000000008152600401610a1f906113f4565b60405180910390fd5b600260008381526020019081526020016000206002016000815480929190610a4f906111b4565b919050555060036000838152602001908152602001600020339080600181540180825580915050600190039060005260206000200160009091909190916101000a81548173ffffffffffffffffffffffffffffffffffffffff021916908373ffffffffffffffffffffffffffffffffffffffff1602179055505050565b60018181548110610adc57600080fd5b90600052602060002090600402016000915090508060000160009054906101000a900473ffffffffffffffffffffffffffffffffffffffff1690806001018054610b2590611026565b80601f0160208091040260200160405190810160405280929190818152602001828054610b5190611026565b8015610b9e5780601f10610b7357610100808354040283529160200191610b9e565b820191906000526020600020905b815481529060010190602001808311610b8157829003601f168201915b5050505050908060020154908060030154905084565b828054610bc090611026565b90600052602060002090601f016020900481019282610be25760008555610c29565b82601f10610bfb57805160ff1916838001178555610c29565b82800160010185558215610c29579182015b82811115610c28578251825591602001919060010190610c0d565b5b509050610c369190610c3a565b5090565b5b80821115610c53576000816000905550600101610c3b565b5090565b6000819050919050565b610c6a81610c57565b82525050565b6000602082019050610c856000830184610c61565b92915050565b6000604051905090565b600080fd5b600080fd5b610ca881610c57565b8114610cb357600080fd5b50565b600081359050610cc581610c9f565b92915050565b600060208284031215610ce157610ce0610c95565b5b6000610cef84828501610cb6565b91505092915050565b600073ffffffffffffffffffffffffffffffffffffffff82169050919050565b6000610d2382610cf8565b9050919050565b610d3381610d18565b82525050565b600081519050919050565b600082825260208201905092915050565b60005b83811015610d73578082015181840152602081019050610d58565b83811115610d82576000848401525b50505050565b6000601f19601f8301169050919050565b6000610da482610d39565b610dae8185610d44565b9350610dbe818560208601610d55565b610dc781610d88565b840191505092915050565b6000608082019050610de76000830187610d2a565b8181036020830152610df98186610d99565b9050610e086040830185610c61565b610e156060830184610c61565b95945050505050565b60008060408385031215610e3557610e34610c95565b5b6000610e4385828601610cb6565b9250506020610e5485828601610cb6565b9150509250929050565b6000602082019050610e736000830184610d2a565b92915050565b600080fd5b600080fd5b7f4e487b7100000000000000000000000000000000000000000000000000000000600052604160045260246000fd5b610ebb82610d88565b810181811067ffffffffffffffff82111715610eda57610ed9610e83565b5b80604052505050565b6000610eed610c8b565b9050610ef98282610eb2565b919050565b600067ffffffffffffffff821115610f1957610f18610e83565b5b610f2282610d88565b9050602081019050919050565b82818337600083830152505050565b6000610f51610f4c84610efe565b610ee3565b905082815260208101848484011115610f6d57610f6c610e7e565b5b610f78848285610f2f565b509392505050565b600082601f830112610f9557610f94610e79565b5b8135610fa5848260208601610f3e565b91505092915050565b600060208284031215610fc457610fc3610c95565b5b600082013567ffffffffffffffff811115610fe257610fe1610c9a565b5b610fee84828501610f80565b91505092915050565b7f4e487b7100000000000000000000000000000000000000000000000000000000600052602260045260246000fd5b6000600282049050600182168061103e57607f821691505b6020821081141561105257611051610ff7565b5b50919050565b7f546865207375626d69747465722063616e6e6f742064656c6574652061206c6960008201527f6b652e0000000000000000000000000000000000000000000000000000000000602082015250565b60006110b4602383610d44565b91506110bf82611058565b604082019050919050565b600060208201905081810360008301526110e3816110a7565b9050919050565b7f4e6f74206f6e65206c696b6520686173206265656e20707265737365642e0000600082015250565b6000611120601e83610d44565b915061112b826110ea565b602082019050919050565b6000602082019050818103600083015261114f81611113565b9050919050565b7f4e487b7100000000000000000000000000000000000000000000000000000000600052603260045260246000fd5b7f4e487b7100000000000000000000000000000000000000000000000000000000600052601160045260246000fd5b60006111bf82610c57565b91507fffffffffffffffffffffffffffffffffffffffffffffffffffffffffffffffff8214156111f2576111f1611185565b5b600182019050919050565b7f596f752063616e6e6f742072656d6f7665206c696b652074776963652e000000600082015250565b6000611233601d83610d44565b915061123e826111fd565b602082019050919050565b6000602082019050818103600083015261126281611226565b9050919050565b600061127482610c57565b9150600082141561128857611287611185565b5b600182039050919050565b6000819050919050565b6000819050919050565b60006112c26112bd6112b884611293565b61129d565b610c57565b9050919050565b6112d2816112a7565b82525050565b600060608201905081810360008301526112f28186610d99565b905061130160208301856112c9565b61130e6040830184610c61565b949350505050565b7f436f6e7472696275746f727320617265206e6f7420616c6c6f77656420746f2060008201527f6c696b652074686520706f73742e000000000000000000000000000000000000602082015250565b6000611372602e83610d44565b915061137d82611316565b604082019050919050565b600060208201905081810360008301526113a181611365565b9050919050565b7f596f752063616e6e6f74207072657373206c696b652074776963652e00000000600082015250565b60006113de601c83610d44565b91506113e9826113a8565b602082019050919050565b6000602082019050818103600083015261140d816113d1565b905091905056fea2646970667358221220e5887be27aa4eb6865812d7839ff7a071942c5d20169a309be13027537b3de7b64736f6c63430008090033",
    "linkReferences": {},
    "deployedLinkReferences": {}
}